{
  "_format": "hh-sol-artifact-1",
  "contractName": "ZLETHWrapper",
  "sourceName": "contracts/ZLETHWrapper.sol",
  "abi": [
    {
      "inputs": [],
      "stateMutability": "nonpayable",
      "type": "constructor"
    },
    {
      "inputs": [],
      "name": "InsufficientETH",
      "type": "error"
    },
    {
      "inputs": [],
      "name": "InvalidReceiver",
      "type": "error"
    },
    {
      "inputs": [],
      "name": "InvalidRequest",
      "type": "error"
    },
    {
      "inputs": [],
      "name": "ReentrancyGuardReentrantCall",
      "type": "error"
    },
    {
      "inputs": [
        {
          "internalType": "uint8",
          "name": "bits",
          "type": "uint8"
        },
        {
          "internalType": "uint256",
          "name": "value",
          "type": "uint256"
        }
      ],
      "name": "SafeCastOverflowedUintDowncast",
      "type": "error"
    },
    {
      "inputs": [],
      "name": "UnwrapFailed",
      "type": "error"
    },
    {
      "inputs": [],
      "name": "ZamaProtocolUnsupported",
      "type": "error"
    },
    {
      "anonymous": false,
      "inputs": [
        {
          "indexed": true,
          "internalType": "address",
          "name": "user",
          "type": "address"
        },
        {
          "indexed": false,
          "internalType": "uint256",
          "name": "ethAmount",
          "type": "uint256"
        }
      ],
      "name": "ETHUnwrapped",
      "type": "event"
    },
    {
      "anonymous": false,
      "inputs": [
        {
          "indexed": true,
          "internalType": "address",
          "name": "user",
          "type": "address"
        },
        {
          "indexed": false,
          "internalType": "uint256",
          "name": "ethAmount",
          "type": "uint256"
        },
        {
          "indexed": false,
          "internalType": "uint64",
          "name": "zlethAmount",
          "type": "uint64"
        }
      ],
      "name": "ETHWrapped",
      "type": "event"
    },
    {
      "anonymous": false,
      "inputs": [
        {
          "indexed": true,
          "internalType": "address",
          "name": "user",
          "type": "address"
        },
        {
          "indexed": false,
          "internalType": "uint256",
          "name": "requestId",
          "type": "uint256"
        }
      ],
      "name": "UnwrapRequested",
      "type": "event"
    },
    {
      "inputs": [
        {
          "internalType": "address",
          "name": "spender",
          "type": "address"
        }
      ],
      "name": "allowDecryption",
      "outputs": [],
      "stateMutability": "nonpayable",
      "type": "function"
    },
    {
      "inputs": [
        {
          "internalType": "address",
          "name": "account",
          "type": "address"
        }
      ],
      "name": "balanceOf",
      "outputs": [
        {
          "internalType": "euint64",
          "name": "",
          "type": "bytes32"
        }
      ],
      "stateMutability": "view",
      "type": "function"
    },
    {
      "inputs": [],
      "name": "confidentialProtocolId",
      "outputs": [
        {
          "internalType": "uint256",
          "name": "",
          "type": "uint256"
        }
      ],
      "stateMutability": "view",
      "type": "function"
    },
    {
      "inputs": [
        {
          "internalType": "address",
          "name": "to",
          "type": "address"
        },
        {
          "internalType": "externalEuint64",
          "name": "encryptedAmount",
          "type": "bytes32"
        },
        {
          "internalType": "bytes",
          "name": "inputProof",
          "type": "bytes"
        }
      ],
      "name": "confidentialTransfer",
      "outputs": [],
      "stateMutability": "nonpayable",
      "type": "function"
    },
    {
      "inputs": [
        {
          "internalType": "address",
          "name": "to",
          "type": "address"
        },
        {
          "internalType": "euint64",
          "name": "amount",
          "type": "bytes32"
        }
      ],
      "name": "confidentialTransfer",
      "outputs": [],
      "stateMutability": "nonpayable",
      "type": "function"
    },
    {
      "inputs": [],
      "name": "contractHealth",
      "outputs": [
        {
          "internalType": "uint256",
          "name": "ethBalance",
          "type": "uint256"
        },
        {
          "internalType": "uint256",
          "name": "ethLocked",
          "type": "uint256"
        },
        {
          "internalType": "bool",
          "name": "isHealthy",
          "type": "bool"
        }
      ],
      "stateMutability": "view",
      "type": "function"
    },
    {
      "inputs": [],
      "name": "decimals",
      "outputs": [
        {
          "internalType": "uint8",
          "name": "",
          "type": "uint8"
        }
      ],
      "stateMutability": "view",
      "type": "function"
    },
    {
      "inputs": [
        {
          "internalType": "address",
          "name": "to",
          "type": "address"
        }
      ],
      "name": "deposit",
      "outputs": [],
      "stateMutability": "payable",
      "type": "function"
    },
    {
      "inputs": [],
      "name": "emergencyWithdrawETH",
      "outputs": [],
      "stateMutability": "nonpayable",
      "type": "function"
    },
    {
      "inputs": [
        {
          "internalType": "uint256",
          "name": "requestID",
          "type": "uint256"
        },
        {
          "internalType": "uint64",
          "name": "zlethAmount",
          "type": "uint64"
        },
        {
          "internalType": "bytes[]",
          "name": "signatures",
          "type": "bytes[]"
        }
      ],
      "name": "finalizeWithdraw",
      "outputs": [],
      "stateMutability": "nonpayable",
      "type": "function"
    },
    {
      "inputs": [],
      "name": "name",
      "outputs": [
        {
          "internalType": "string",
          "name": "",
          "type": "string"
        }
      ],
      "stateMutability": "view",
      "type": "function"
    },
    {
      "inputs": [],
      "name": "rate",
      "outputs": [
        {
          "internalType": "uint256",
          "name": "",
          "type": "uint256"
        }
      ],
      "stateMutability": "view",
      "type": "function"
    },
    {
      "inputs": [],
      "name": "symbol",
      "outputs": [
        {
          "internalType": "string",
          "name": "",
          "type": "string"
        }
      ],
      "stateMutability": "view",
      "type": "function"
    },
    {
      "inputs": [],
      "name": "totalEthLocked",
      "outputs": [
        {
          "internalType": "uint256",
          "name": "",
          "type": "uint256"
        }
      ],
      "stateMutability": "view",
      "type": "function"
    },
    {
      "inputs": [
        {
          "internalType": "address",
          "name": "from",
          "type": "address"
        },
        {
          "internalType": "address",
          "name": "to",
          "type": "address"
        },
        {
          "internalType": "externalEuint64",
          "name": "encryptedAmount",
          "type": "bytes32"
        },
        {
          "internalType": "bytes",
          "name": "inputProof",
          "type": "bytes"
        }
      ],
      "name": "withdraw",
      "outputs": [],
      "stateMutability": "nonpayable",
      "type": "function"
    },
    {
      "inputs": [
        {
          "internalType": "address",
          "name": "from",
          "type": "address"
        },
        {
          "internalType": "address",
          "name": "to",
          "type": "address"
        },
        {
          "internalType": "euint64",
          "name": "amount",
          "type": "bytes32"
        }
      ],
      "name": "withdraw",
      "outputs": [],
      "stateMutability": "nonpayable",
      "type": "function"
    },
    {
      "stateMutability": "payable",
      "type": "receive"
    }
  ],
  "bytecode": "0x60c0604052346102f05761001161035f565b504660010361020c5761002261035f565b5061002b61032c565b5f81525f60208201525f60408201525b80517f9e7b61f58c47dc699ac88507c4f5bb9f121c03808c5676a8078fe583e464970080546001600160a01b03199081166001600160a01b039384161790915560208301517f9e7b61f58c47dc699ac88507c4f5bb9f121c03808c5676a8078fe583e4649701805483169184169190911790556040909201517f9e7b61f58c47dc699ac88507c4f5bb9f121c03808c5676a8078fe583e46497028054909316911617905560015f819055546100ef906102f4565b601f81116101c4575b507f5a616d61204c696e6b204554480000000000000000000000000000000000001a600155600254610129906102f4565b601f811161017c575b600a640b4988aa8960db1b016002556009608052633b9aca0060a0526040516110e9908161037a82396080518161095c015260a05181818160300152818161028801526109e90152f35b60025f52601f0160051c7f405787fa12a823e0f2b7631cc41b3ba8828b3321ca811111fa75cd3aa3bb5ace908101905b8181106101b95750610132565b5f81556001016101ac565b60015f52601f0160051c7fb10e2d527612073b26eecdfd717e6a320cf44b4afac2b0732d9fcbe2b7fa0cf6908101905b81811061020157506100f8565b5f81556001016101f4565b4662aa36a7036102775761021e61035f565b5061022761032c565b73f0ffdc93b7e186bc2f8cb3daa75d86d1930a433d81527392c920834ec8941d2c77d188936e1f7a6f49c127602082015273be0e383937d564d7ff0bc3b46c51f0bf8d5c311a604082015261003b565b46617a69036102e15761028861035f565b5061029161032c565b7350157cffd6bbfa2dece204a89ec419c23ef5755d815273e3a9105a3a932253a70f126eb1e3b589c643dd24602082015273be0e383937d564d7ff0bc3b46c51f0bf8d5c311a604082015261003b565b6373cac13b60e01b5f5260045ffd5b5f80fd5b90600182811c92168015610322575b602083101461030e57565b634e487b7160e01b5f52602260045260245ffd5b91607f1691610303565b60405190606082016001600160401b0381118382101761034b57604052565b634e487b7160e01b5f52604160045260245ffd5b61036761032c565b905f82525f60208301525f604083015256fe608060405260043610156101b0575b3615610018575f80fd5b3415801561002257005b61002a610e17565b610176577f0000000000000000000000000000000000000000000000000000000000000000801561019c5780340467ffffffffffffffff81116101855767ffffffffffffffff169081156101765734068080158015610146575b5061008f9034610bd9565b90600554918201809211610132576100fa916005556100c26100b084610ec5565b335f52600360205260405f2054610f31565b335f9081526003602052604090208190556100de903090611061565b335f5260036020526100f43360405f2054611061565b34610bd9565b9060405191825260208201527f4df0715e64e925c8800d7b4e8fc78c1cc94390aba798c793562aa1509249d21060403392a260015f55005b634e487b7160e01b5f52601160045260245ffd5b5f9061016d575b5f80809381933390f11561016257805f610084565b6040513d5f823e3d90fd5b506108fc61014d565b631a84bc4160e21b5f5260045ffd5b6306dfcc6560e41b5f52604060045260245260445ffd5b634e487b7160e01b5f52601260045260245ffd5b5f3560e01c806306fdde0314610a38578063234e1da114610a0c5780632c4e722e146109d25780632fb74e6214610980578063313ce567146109435780635bebed7e1461091d57806370a08231146108e5578063845360171461085b5780638927b030146108395780638e21086114610809578063926869441461076857806395d89b411461065c578063a34eb1da146104eb578063d2701f99146103d4578063e479c8f7146103b75763f340fa010361000e5760203660031901126103b357610278610b39565b610280610e17565b3415610176577f0000000000000000000000000000000000000000000000000000000000000000801561019c5780340467ffffffffffffffff81116101855767ffffffffffffffff16908115610176573406808015801561038e575b506102e79034610bd9565b916005549283018093116101325761037c6040927f4df0715e64e925c8800d7b4e8fc78c1cc94390aba798c793562aa1509249d210946005556100f461032c84610ec5565b9661034c6001600160a01b03821698895f526003602052875f2054610f31565b5f8981526003602052878120919091558690205461036b903090611061565b875f526003602052855f2054611061565b9082519182526020820152a260015f55005b5f906103aa575b5f80809381933390f11561016257805f6102dc565b506108fc610395565b5f80fd5b346103b3575f3660031901126103b3576020600554604051908152f35b346103b35760603660031901126103b3576103ed610b39565b6001600160a01b036103fd610b4f565b610405610e17565b169081156104dc576001600160a01b038116903382036104975761046791805f52600360205261043b60443560405f2054610fc9565b5f828152600360205260409020819055610456903090611061565b5f52600360205260405f2054611061565b7f15e8b36d3d0b29693f4c47e496ea5b386255eec3298d3396880f76fce9add29660206040515f8152a260015f55005b60405162461bcd60e51b815260206004820152600c60248201527f556e617574686f72697a656400000000000000000000000000000000000000006044820152606490fd5b631e4ec46b60e01b5f5260045ffd5b346103b35760603660031901126103b35760243567ffffffffffffffff8116036103b35760443567ffffffffffffffff81116103b357366023820112156103b35780600401359067ffffffffffffffff821161064857602460208360051b936040519061055a83870183610af3565b81520192820101903682116103b35760248101925b8284106106075760405162461bcd60e51b815260206004820152604560248201527f4f7261636c65206761746577617920696e746567726174696f6e20726571756960448201527f726564202d206e6f7420696d706c656d656e74656420696e207468697320657860648201527f616d706c65000000000000000000000000000000000000000000000000000000608482015260a490fd5b833567ffffffffffffffff81116103b3578201366043820112156103b35760209161063d83923690604460248201359101610b93565b81520193019261056f565b634e487b7160e01b5f52604160045260245ffd5b346103b3575f3660031901126103b3576040515f6002548060011c9060018116801561075e575b60208310811461074a5782855290811561072657506001146106c8575b6106c4836106b081850382610af3565b604051918291602083526020830190610b15565b0390f35b60025f9081527f405787fa12a823e0f2b7631cc41b3ba8828b3321ca811111fa75cd3aa3bb5ace939250905b80821061070c575090915081016020016106b06106a0565b9192600181602092548385880101520191019092916106f4565b60ff191660208086019190915291151560051b840190910191506106b090506106a0565b634e487b7160e01b5f52602260045260245ffd5b91607f1691610683565b346103b35760803660031901126103b357610781610b39565b610789610b4f565b60643567ffffffffffffffff81116103b3576107ce6107c66107b76001600160a01b03933690600401610b65565b6107bf610e17565b3691610b93565b604435610be6565b916107d7610e17565b169182156104dc576001600160a01b0381163381036104975761043b61046793825f52600360205260405f2054610fc9565b346103b35760203660031901126103b357610837610825610b39565b335f52600360205260405f2054611061565b005b346103b3575f3660031901126103b3576020610853610de8565b604051908152f35b346103b3575f3660031901126103b35747600554809111156108a0575f8080610885819447610bd9565b818115610897575b3390f11561016257005b506108fc61088d565b60405162461bcd60e51b815260206004820152601960248201527f4e6f206578636573732045544820746f207769746864726177000000000000006044820152606490fd5b346103b35760203660031901126103b3576001600160a01b03610906610b39565b165f526003602052602060405f2054604051908152f35b346103b35760403660031901126103b357610837610939610b39565b6024359033610d0a565b346103b3575f3660031901126103b357602060405160ff7f0000000000000000000000000000000000000000000000000000000000000000168152f35b346103b35760603660031901126103b357610999610b39565b6044359067ffffffffffffffff82116103b3576109cb6109c36107bf610837943690600401610b65565b602435610be6565b9033610d0a565b346103b3575f3660031901126103b35760206040517f00000000000000000000000000000000000000000000000000000000000000008152f35b346103b3575f3660031901126103b3576060476005546040519180835281602084015210156040820152f35b346103b3575f3660031901126103b3576040515f6001548060011c90600181168015610ae9575b60208310811461074a578285529081156107265750600114610a8b576106c4836106b081850382610af3565b60015f9081527fb10e2d527612073b26eecdfd717e6a320cf44b4afac2b0732d9fcbe2b7fa0cf6939250905b808210610acf575090915081016020016106b06106a0565b919260018160209254838588010152019101909291610ab7565b91607f1691610a5f565b90601f8019910116810190811067ffffffffffffffff82111761064857604052565b805180835260209291819084018484015e5f828201840152601f01601f1916010190565b600435906001600160a01b03821682036103b357565b602435906001600160a01b03821682036103b357565b9181601f840112156103b35782359167ffffffffffffffff83116103b357602083818601950101116103b357565b92919267ffffffffffffffff82116106485760405191610bbd601f8201601f191660200184610af3565b8294818452818301116103b3578281602093845f960137010152565b9190820391821161013257565b610c49916020916001600160a01b037f9e7b61f58c47dc699ac88507c4f5bb9f121c03808c5676a8078fe583e46497015416905f60405180968195829463045fc19560e11b84526004840152336024840152608060448401526084830190610b15565b6005606483015203925af1908115610162575f91610cd8575b506001600160a01b037f9e7b61f58c47dc699ac88507c4f5bb9f121c03808c5676a8078fe583e46497005416803b156103b357604051630f8e573b60e21b815260048101839052336024820152905f908290604490829084905af1801561016257610ccb575090565b5f610cd591610af3565b90565b90506020813d602011610d02575b81610cf360209383610af3565b810103126103b357515f610c62565b3d9150610ce6565b916001600160a01b038216908115610da3578361045691610d676001600160a01b03610da1971691825f526003602052610d488160405f2054610fc9565b835f52600360205260405f2055855f52600360205260405f2054610f31565b845f52600360205260405f2055805f526003602052610d8b60405f20543090611061565b835f5260036020526104563060405f2054611061565b565b60405162461bcd60e51b815260206004820152601860248201527f5472616e7366657220746f207a65726f206164647265737300000000000000006044820152606490fd5b46600103610df557600190565b4662aa36a703610e055761271190565b617a694614610e12575f90565b5f1990565b60025f5414610e265760025f55565b633ee5aeb560e01b5f5260045ffd5b5f60206001600160a01b037f9e7b61f58c47dc699ac88507c4f5bb9f121c03808c5676a8078fe583e46497015416604460405180948193639cd07acb60e01b8352816004840152600560248401525af1908115610162575f91610e96575090565b90506020813d602011610ebd575b81610eb160209383610af3565b810103126103b3575190565b3d9150610ea4565b602067ffffffffffffffff60446001600160a01b037f9e7b61f58c47dc699ac88507c4f5bb9f121c03808c5676a8078fe583e46497015416935f6040519586948593639cd07acb60e01b8552166004840152600560248401525af1908115610162575f91610e96575090565b908115610fb9575b8015610fa7575b60209060646001600160a01b037f9e7b61f58c47dc699ac88507c4f5bb9f121c03808c5676a8078fe583e46497015416935f604051958694859363022f65e760e31b8552600485015260248401528160448401525af1908115610162575f91610e96575090565b506020610fb2610e35565b9050610f40565b9050610fc3610e35565b90610f39565b908115611051575b801561103f575b60209060646001600160a01b037f9e7b61f58c47dc699ac88507c4f5bb9f121c03808c5676a8078fe583e46497015416935f60405195869485936303056db360e31b8552600485015260248401528160448401525af1908115610162575f91610e96575090565b50602061104a610e35565b9050610fd8565b905061105b610e35565b90610fd1565b6001600160a01b037f9e7b61f58c47dc699ac88507c4f5bb9f121c03808c5676a8078fe583e4649700541691823b156103b357604051635ca4b5b160e11b815260048101929092526001600160a01b03166024820152905f908290604490829084905af18015610162576110d25750565b5f610da191610af356fea164736f6c634300081b000a",
  "linkReferences": {},
  "deployedLinkReferences": {}
}