{
  "_format": "hh-sol-artifact-1",
  "contractName": "ZamaLinkCampaign",
  "sourceName": "contracts/ZamaLinkCampaign.sol",
  "abi": [
    {
      "inputs": [
        {
          "internalType": "address",
          "name": "_zlethWrapper",
          "type": "address"
        }
      ],
      "stateMutability": "nonpayable",
      "type": "constructor"
    },
    {
      "inputs": [],
      "name": "EnforcedPause",
      "type": "error"
    },
    {
      "inputs": [],
      "name": "ExpectedPause",
      "type": "error"
    },
    {
      "inputs": [
        {
          "internalType": "address",
          "name": "owner",
          "type": "address"
        }
      ],
      "name": "OwnableInvalidOwner",
      "type": "error"
    },
    {
      "inputs": [
        {
          "internalType": "address",
          "name": "account",
          "type": "address"
        }
      ],
      "name": "OwnableUnauthorizedAccount",
      "type": "error"
    },
    {
      "inputs": [],
      "name": "ReentrancyGuardReentrantCall",
      "type": "error"
    },
    {
      "inputs": [
        {
          "internalType": "uint8",
          "name": "bits",
          "type": "uint8"
        },
        {
          "internalType": "uint256",
          "name": "value",
          "type": "uint256"
        }
      ],
      "name": "SafeCastOverflowedUintDowncast",
      "type": "error"
    },
    {
      "inputs": [],
      "name": "ZamaProtocolUnsupported",
      "type": "error"
    },
    {
      "anonymous": false,
      "inputs": [
        {
          "indexed": true,
          "internalType": "bytes32",
          "name": "campaignId",
          "type": "bytes32"
        },
        {
          "indexed": false,
          "internalType": "uint256",
          "name": "timestamp",
          "type": "uint256"
        }
      ],
      "name": "CampaignCompleted",
      "type": "event"
    },
    {
      "anonymous": false,
      "inputs": [
        {
          "indexed": true,
          "internalType": "bytes32",
          "name": "campaignId",
          "type": "bytes32"
        },
        {
          "indexed": true,
          "internalType": "address",
          "name": "organizer",
          "type": "address"
        },
        {
          "indexed": false,
          "internalType": "string",
          "name": "title",
          "type": "string"
        },
        {
          "indexed": false,
          "internalType": "uint256",
          "name": "targetAmount",
          "type": "uint256"
        },
        {
          "indexed": false,
          "internalType": "uint256",
          "name": "deadline",
          "type": "uint256"
        }
      ],
      "name": "CampaignCreated",
      "type": "event"
    },
    {
      "anonymous": false,
      "inputs": [
        {
          "indexed": true,
          "internalType": "bytes32",
          "name": "campaignId",
          "type": "bytes32"
        },
        {
          "indexed": true,
          "internalType": "address",
          "name": "organizer",
          "type": "address"
        },
        {
          "indexed": false,
          "internalType": "uint256",
          "name": "requestId",
          "type": "uint256"
        }
      ],
      "name": "FundsClaimedPrivate",
      "type": "event"
    },
    {
      "anonymous": false,
      "inputs": [
        {
          "indexed": true,
          "internalType": "address",
          "name": "previousOwner",
          "type": "address"
        },
        {
          "indexed": true,
          "internalType": "address",
          "name": "newOwner",
          "type": "address"
        }
      ],
      "name": "OwnershipTransferred",
      "type": "event"
    },
    {
      "anonymous": false,
      "inputs": [
        {
          "indexed": false,
          "internalType": "address",
          "name": "account",
          "type": "address"
        }
      ],
      "name": "Paused",
      "type": "event"
    },
    {
      "anonymous": false,
      "inputs": [
        {
          "indexed": true,
          "internalType": "bytes32",
          "name": "campaignId",
          "type": "bytes32"
        },
        {
          "indexed": true,
          "internalType": "address",
          "name": "donor",
          "type": "address"
        },
        {
          "indexed": false,
          "internalType": "uint256",
          "name": "timestamp",
          "type": "uint256"
        },
        {
          "indexed": false,
          "internalType": "bool",
          "name": "isAnonymous",
          "type": "bool"
        }
      ],
      "name": "PrivateDonationMade",
      "type": "event"
    },
    {
      "anonymous": false,
      "inputs": [
        {
          "indexed": false,
          "internalType": "address",
          "name": "account",
          "type": "address"
        }
      ],
      "name": "Unpaused",
      "type": "event"
    },
    {
      "inputs": [
        {
          "internalType": "uint256",
          "name": "",
          "type": "uint256"
        }
      ],
      "name": "activeCampaigns",
      "outputs": [
        {
          "internalType": "bytes32",
          "name": "",
          "type": "bytes32"
        }
      ],
      "stateMutability": "view",
      "type": "function"
    },
    {
      "inputs": [
        {
          "internalType": "uint256",
          "name": "",
          "type": "uint256"
        }
      ],
      "name": "allCampaigns",
      "outputs": [
        {
          "internalType": "bytes32",
          "name": "",
          "type": "bytes32"
        }
      ],
      "stateMutability": "view",
      "type": "function"
    },
    {
      "inputs": [
        {
          "internalType": "bytes32",
          "name": "campaignId",
          "type": "bytes32"
        }
      ],
      "name": "allowOrganizerDecrypt",
      "outputs": [],
      "stateMutability": "nonpayable",
      "type": "function"
    },
    {
      "inputs": [
        {
          "internalType": "bytes32",
          "name": "",
          "type": "bytes32"
        },
        {
          "internalType": "uint256",
          "name": "",
          "type": "uint256"
        }
      ],
      "name": "campaignDonations",
      "outputs": [
        {
          "internalType": "address",
          "name": "donor",
          "type": "address"
        },
        {
          "internalType": "bytes32",
          "name": "campaignId",
          "type": "bytes32"
        },
        {
          "internalType": "uint256",
          "name": "timestamp",
          "type": "uint256"
        },
        {
          "internalType": "bool",
          "name": "isAnonymous",
          "type": "bool"
        }
      ],
      "stateMutability": "view",
      "type": "function"
    },
    {
      "inputs": [
        {
          "internalType": "bytes32",
          "name": "",
          "type": "bytes32"
        }
      ],
      "name": "campaigns",
      "outputs": [
        {
          "internalType": "bytes32",
          "name": "id",
          "type": "bytes32"
        },
        {
          "internalType": "address",
          "name": "organizer",
          "type": "address"
        },
        {
          "internalType": "string",
          "name": "title",
          "type": "string"
        },
        {
          "internalType": "string",
          "name": "description",
          "type": "string"
        },
        {
          "internalType": "string",
          "name": "imageUrl",
          "type": "string"
        },
        {
          "internalType": "uint256",
          "name": "targetAmount",
          "type": "uint256"
        },
        {
          "internalType": "uint256",
          "name": "deadline",
          "type": "uint256"
        },
        {
          "internalType": "euint64",
          "name": "totalZLETHDonations",
          "type": "bytes32"
        },
        {
          "internalType": "euint32",
          "name": "donationCount",
          "type": "bytes32"
        },
        {
          "internalType": "uint256",
          "name": "publicDonorCount",
          "type": "uint256"
        },
        {
          "internalType": "bool",
          "name": "isActive",
          "type": "bool"
        },
        {
          "internalType": "bool",
          "name": "isCompleted",
          "type": "bool"
        },
        {
          "internalType": "enum ZamaLinkCampaign.CampaignCategory",
          "name": "category",
          "type": "uint8"
        },
        {
          "internalType": "uint256",
          "name": "createdAt",
          "type": "uint256"
        }
      ],
      "stateMutability": "view",
      "type": "function"
    },
    {
      "inputs": [
        {
          "internalType": "bytes32",
          "name": "campaignId",
          "type": "bytes32"
        }
      ],
      "name": "claimFunds",
      "outputs": [],
      "stateMutability": "nonpayable",
      "type": "function"
    },
    {
      "inputs": [
        {
          "internalType": "bytes32",
          "name": "campaignId",
          "type": "bytes32"
        }
      ],
      "name": "completeCampaign",
      "outputs": [],
      "stateMutability": "nonpayable",
      "type": "function"
    },
    {
      "inputs": [],
      "name": "confidentialProtocolId",
      "outputs": [
        {
          "internalType": "uint256",
          "name": "",
          "type": "uint256"
        }
      ],
      "stateMutability": "view",
      "type": "function"
    },
    {
      "inputs": [
        {
          "internalType": "bytes32",
          "name": "campaignId",
          "type": "bytes32"
        },
        {
          "internalType": "string",
          "name": "title",
          "type": "string"
        },
        {
          "internalType": "string",
          "name": "description",
          "type": "string"
        },
        {
          "internalType": "string",
          "name": "imageUrl",
          "type": "string"
        },
        {
          "internalType": "uint256",
          "name": "targetAmount",
          "type": "uint256"
        },
        {
          "internalType": "uint256",
          "name": "duration",
          "type": "uint256"
        },
        {
          "internalType": "enum ZamaLinkCampaign.CampaignCategory",
          "name": "category",
          "type": "uint8"
        }
      ],
      "name": "createCampaign",
      "outputs": [],
      "stateMutability": "nonpayable",
      "type": "function"
    },
    {
      "inputs": [
        {
          "internalType": "bytes32",
          "name": "campaignId",
          "type": "bytes32"
        },
        {
          "internalType": "bool",
          "name": "isAnonymous",
          "type": "bool"
        }
      ],
      "name": "donate",
      "outputs": [],
      "stateMutability": "payable",
      "type": "function"
    },
    {
      "inputs": [
        {
          "internalType": "address",
          "name": "",
          "type": "address"
        },
        {
          "internalType": "uint256",
          "name": "",
          "type": "uint256"
        }
      ],
      "name": "donorCampaigns",
      "outputs": [
        {
          "internalType": "bytes32",
          "name": "",
          "type": "bytes32"
        }
      ],
      "stateMutability": "view",
      "type": "function"
    },
    {
      "inputs": [],
      "name": "getActiveCampaigns",
      "outputs": [
        {
          "internalType": "bytes32[]",
          "name": "",
          "type": "bytes32[]"
        }
      ],
      "stateMutability": "view",
      "type": "function"
    },
    {
      "inputs": [],
      "name": "getAllCampaigns",
      "outputs": [
        {
          "internalType": "bytes32[]",
          "name": "",
          "type": "bytes32[]"
        }
      ],
      "stateMutability": "view",
      "type": "function"
    },
    {
      "inputs": [
        {
          "internalType": "bytes32",
          "name": "campaignId",
          "type": "bytes32"
        }
      ],
      "name": "getCampaignInfo",
      "outputs": [
        {
          "internalType": "address",
          "name": "organizer",
          "type": "address"
        },
        {
          "internalType": "string",
          "name": "title",
          "type": "string"
        },
        {
          "internalType": "string",
          "name": "description",
          "type": "string"
        },
        {
          "internalType": "string",
          "name": "imageUrl",
          "type": "string"
        },
        {
          "internalType": "uint256",
          "name": "targetAmount",
          "type": "uint256"
        },
        {
          "internalType": "uint256",
          "name": "deadline",
          "type": "uint256"
        },
        {
          "internalType": "uint256",
          "name": "publicDonorCount",
          "type": "uint256"
        },
        {
          "internalType": "bool",
          "name": "isActive",
          "type": "bool"
        },
        {
          "internalType": "enum ZamaLinkCampaign.CampaignCategory",
          "name": "category",
          "type": "uint8"
        },
        {
          "internalType": "uint256",
          "name": "createdAt",
          "type": "uint256"
        }
      ],
      "stateMutability": "view",
      "type": "function"
    },
    {
      "inputs": [
        {
          "internalType": "address",
          "name": "organizer",
          "type": "address"
        }
      ],
      "name": "getCampaignsByOrganizer",
      "outputs": [
        {
          "internalType": "bytes32[]",
          "name": "",
          "type": "bytes32[]"
        }
      ],
      "stateMutability": "view",
      "type": "function"
    },
    {
      "inputs": [
        {
          "internalType": "bytes32",
          "name": "campaignId",
          "type": "bytes32"
        }
      ],
      "name": "getEncryptedTotals",
      "outputs": [
        {
          "internalType": "euint64",
          "name": "totalZLETH",
          "type": "bytes32"
        },
        {
          "internalType": "euint32",
          "name": "donationCount",
          "type": "bytes32"
        }
      ],
      "stateMutability": "view",
      "type": "function"
    },
    {
      "inputs": [
        {
          "internalType": "bytes32",
          "name": "campaignId",
          "type": "bytes32"
        },
        {
          "internalType": "uint256",
          "name": "limit",
          "type": "uint256"
        }
      ],
      "name": "getRecentDonations",
      "outputs": [
        {
          "internalType": "address[]",
          "name": "donors",
          "type": "address[]"
        },
        {
          "internalType": "uint256[]",
          "name": "timestamps",
          "type": "uint256[]"
        },
        {
          "internalType": "bool[]",
          "name": "isAnonymous",
          "type": "bool[]"
        }
      ],
      "stateMutability": "view",
      "type": "function"
    },
    {
      "inputs": [
        {
          "internalType": "address",
          "name": "",
          "type": "address"
        },
        {
          "internalType": "bytes32",
          "name": "",
          "type": "bytes32"
        }
      ],
      "name": "hasDonatedTo",
      "outputs": [
        {
          "internalType": "bool",
          "name": "",
          "type": "bool"
        }
      ],
      "stateMutability": "view",
      "type": "function"
    },
    {
      "inputs": [
        {
          "internalType": "address",
          "name": "",
          "type": "address"
        },
        {
          "internalType": "uint256",
          "name": "",
          "type": "uint256"
        }
      ],
      "name": "organizerCampaigns",
      "outputs": [
        {
          "internalType": "bytes32",
          "name": "",
          "type": "bytes32"
        }
      ],
      "stateMutability": "view",
      "type": "function"
    },
    {
      "inputs": [],
      "name": "owner",
      "outputs": [
        {
          "internalType": "address",
          "name": "",
          "type": "address"
        }
      ],
      "stateMutability": "view",
      "type": "function"
    },
    {
      "inputs": [],
      "name": "pause",
      "outputs": [],
      "stateMutability": "nonpayable",
      "type": "function"
    },
    {
      "inputs": [],
      "name": "paused",
      "outputs": [
        {
          "internalType": "bool",
          "name": "",
          "type": "bool"
        }
      ],
      "stateMutability": "view",
      "type": "function"
    },
    {
      "inputs": [],
      "name": "renounceOwnership",
      "outputs": [],
      "stateMutability": "nonpayable",
      "type": "function"
    },
    {
      "inputs": [
        {
          "internalType": "address",
          "name": "newOwner",
          "type": "address"
        }
      ],
      "name": "transferOwnership",
      "outputs": [],
      "stateMutability": "nonpayable",
      "type": "function"
    },
    {
      "inputs": [],
      "name": "unpause",
      "outputs": [],
      "stateMutability": "nonpayable",
      "type": "function"
    },
    {
      "inputs": [
        {
          "internalType": "address",
          "name": "newWrapper",
          "type": "address"
        }
      ],
      "name": "updateZLETHWrapper",
      "outputs": [],
      "stateMutability": "view",
      "type": "function"
    },
    {
      "inputs": [],
      "name": "zlethWrapper",
      "outputs": [
        {
          "internalType": "contract IZLETHWrapper",
          "name": "",
          "type": "address"
        }
      ],
      "stateMutability": "view",
      "type": "function"
    },
    {
      "stateMutability": "payable",
      "type": "receive"
    }
  ],
  "bytecode": "0x60a0604052346102b057604051601f61274338819003918201601f19168301916001600160401b038311848410176102b4578084926020946040528339810103126102b057516001600160a01b038116908190036102b05761005f6102e7565b50466001036101cc576100706102e7565b506100796102c8565b5f81525f60208201525f60408201525b80517f9e7b61f58c47dc699ac88507c4f5bb9f121c03808c5676a8078fe583e464970080546001600160a01b03199081166001600160a01b039384161790915560208301517f9e7b61f58c47dc699ac88507c4f5bb9f121c03808c5676a8078fe583e4649701805483169184169190911790556040909201517f9e7b61f58c47dc699ac88507c4f5bb9f121c03808c5676a8078fe583e46497028054909316911617905560015f5533156101b95760018054610100600160a81b0319811633600881811b610100600160a81b031692909217909355604051939291901c6001600160a01b03167f8be0079c531659141344cd1fd0a4f28419497f9722a3daafe3b4186f6b6457e05f80a36080526124419081610302823960805181818161086c01528181610d710152610f890152f35b631e4fbdf760e01b5f525f60045260245ffd5b4662aa36a703610237576101de6102e7565b506101e76102c8565b73f0ffdc93b7e186bc2f8cb3daa75d86d1930a433d81527392c920834ec8941d2c77d188936e1f7a6f49c127602082015273be0e383937d564d7ff0bc3b46c51f0bf8d5c311a6040820152610089565b46617a69036102a1576102486102e7565b506102516102c8565b7350157cffd6bbfa2dece204a89ec419c23ef5755d815273e3a9105a3a932253a70f126eb1e3b589c643dd24602082015273be0e383937d564d7ff0bc3b46c51f0bf8d5c311a6040820152610089565b6373cac13b60e01b5f5260045ffd5b5f80fd5b634e487b7160e01b5f52604160045260245ffd5b60405190606082016001600160401b038111838210176102b457604052565b6102ef6102c8565b905f82525f60208301525f604083015256fe60806040526004361015610083575b3615610018575f80fd5b60405162461bcd60e51b815260206004820152602b60248201527f55736520646f6e61746528292066756e6374696f6e20666f722070726976617460448201527f6520646f6e6174696f6e730000000000000000000000000000000000000000006064820152608490fd5b5f5f3560e01c80631465b2c314611e4c578063229dcbe314611dda57806324a1f367146117385780632cc6a2e4146116b55780633f4ba83a1461164f5780635c975abb1461162d5780635cebc65814610edc578063676f940014610e945780636bd4bfe114610d03578063715018a614610c9757806374f0de1b14610c1f5780638456cb5914610bc557806386cdf60414610b505780638927b03014610b2d5780638da5cb5b14610b0357806394470d5114610ac95780639db112a314610a705780639eca2f1e14610953578063a509f4d1146108fc578063a656771214610890578063af5542fc1461084c578063b0a6e3e614610691578063b999be1b14610586578063c362b15614610501578063dc357e2e146104ba578063f2fde38b146104045763fb13eadf146101b7575061000e565b34610401576101c53661208f565b9080835260026020526101e96001600160a01b03600160408620015416151561210a565b8252600360205260408220918254918083115f146103f95791905b61020d836121a2565b9261021b6040519485611f88565b808452610227816121a2565b602085019590601f190136873761023d826121a2565b9561024b6040519788611f88565b828752610257836121a2565b602088019390601f190136853761026d816121a2565b9261027b6040519485611f88565b818452610287826121a2565b602085019790601f1901368937865b83811061035c575050505060405196879660608801906060895251809152608088019290865b81811061033a57505050602090878303828901525191828152019290845b81811061032157505050602090858303604087015251918281520192915b818110610306575050500390f35b825115158452859450602093840193909201916001016102f8565b82518552889750602094850194909201916001016102da565b82516001600160a01b031685528a9950602094850194909201916001016102bc565b879a94959698999a508382038281116103e5579060ff60036103c58e610384856001976120be565b906103a4866001600160a01b0361039b858d6120a5565b505416926121ba565b5260026103b1828a6120a5565b5001546103be868c6121ba565b52876120a5565b500154166103d3828a6121ba565b90151590520199989795949399610296565b634e487b7160e01b89526011600452602489fd5b508190610204565b80fd5b50346104015760203660031901126104015761041e611e92565b6104266121e9565b6001600160a01b0381169081156104a6576001600160a01b039074ffffffffffffffffffffffffffffffffffffffff006001549160081b1674ffffffffffffffffffffffffffffffffffffffff001982161760015560081c167f8be0079c531659141344cd1fd0a4f28419497f9722a3daafe3b4186f6b6457e08380a380f35b631e4fbdf760e01b83526004839052602483fd5b50346104015760403660031901126104015760ff60406020926001600160a01b036104e3611e92565b16815260058452818120602435825284522054166040519015158152f35b503461040157806003193601126104015760405180916020600854928381520191600882527ff3f7a9fe364faab93b216da50a3214154f22a0a2b415b23a84c8169e8b636ee3915b8181106105705761056c8561056081870382611f88565b60405191829182611ee9565b0390f35b8254845260209093019260019283019201610549565b5034610401576020366003190112610401576040602091600435808252600284526105c16001600160a01b036001858520015416151561210a565b815260028352206001600160a01b036001820154169060058101549061068760068201546009830154600a8401549161065b600b8601549561064d61060860028301611faa565b9161063f610624600461061d60038501611faa565b9301611faa565b936101406040519e8f9e8f90815201526101408d019061204a565b908b820360408d015261204a565b9089820360608b015261204a565b95608088015260a087015260c086015260ff8116151560e086015260ff61010086019160101c1661206e565b6101208301520390f35b50346104015760203660031901126104015760043580825260026020526106c96001600160a01b03600160408520015416151561210a565b80825260026020526106ec6001600160a01b036001604085200154163314612156565b8082526002602052600a6040832001805460ff8116156108075761ffff1916610100179055808252600960205260408220546008545f1981019081116107f3578082036107ab575b50506008548015610797575f190161074b81611ea8565b8154905f199060031b1b1916905560085580825260096020528160408120557f39c59e243b727b972e7c4ce6e5d7e6ce2c886e018b0ce40d214e17624d51b0826020604051428152a280f35b634e487b7160e01b83526031600452602483fd5b6107b490611ea8565b90549060031b1c806107de6107c884611ea8565b819391549060031b91821b915f19901b19161790565b90558352600960205260408320555f80610734565b634e487b7160e01b84526011600452602484fd5b60405162461bcd60e51b815260206004820152601160248201527f416c726561647920636f6d706c657465640000000000000000000000000000006044820152606490fd5b503461040157806003193601126104015760206040516001600160a01b037f0000000000000000000000000000000000000000000000000000000000000000168152f35b50346104015761089f3661208f565b919081526003602052604081209081548310156104015760806108c284846120a5565b506001600160a01b038154169060018101549060ff6003600283015492015416916040519384526020840152604083015215156060820152f35b503461040157602036600319011261040157600435906007548210156104015760075482101561093f576020916007825282822001549060031b1c604051908152f35b634e487b7160e01b81526032600452602490fd5b5034610401576020366003190112610401576004358152600260205260409020805460018201546001600160a01b0316916002810161099190611faa565b61099d60038301611faa565b916109aa60048201611faa565b926005820154936006830154600784015490600885015492600986015494600a87015496600b0154976040519b8c9b8c5260208c015260408b016101c090526101c08b016109f79161204a565b8a810360608c0152610a089161204a565b89810360808b0152610a199161204a565b9660a089015260c088015260e087015261010086015261012085015260ff811615156101408501528060081c60ff16151561016085015261018084019060101c60ff1690610a669161206e565b6101a08301520390f35b503461040157602036600319011261040157604080916004358082526002602052610aab6001600160a01b036001858520015416151561210a565b81526002602052206008600782015491015482519182526020820152f35b50346104015760203660031901126104015760043590600854821015610401576020610af483611ea8565b90549060031b1c604051908152f35b503461040157806003193601126104015760206001600160a01b0360015460081c16604051908152f35b50346104015780600319360112610401576020610b48612231565b604051908152f35b503461040157806003193601126104015760405180916020600754928381520191600782527fa66cc928b5edb82af9bd49922954155ab7b0942694bea4ce44661d9a8736c688915b818110610baf5761056c8561056081870382611f88565b8254845260209093019260019283019201610b98565b5034610401578060031936011261040157610bde6121e9565b610be66121ce565b600160ff19815416176001557f62e78cea01bee320cd4e420270b5ea74000d11b0c9f74754ebdbfc544b05a2586020604051338152a180f35b5034610401576020366003190112610401576001600160a01b03610c41611e92565b610c496121e9565b1615610c525780f35b60405162461bcd60e51b815260206004820152600f60248201527f496e76616c6964207772617070657200000000000000000000000000000000006044820152606490fd5b5034610401578060031936011261040157610cb06121e9565b806001600160a01b0360015474ffffffffffffffffffffffffffffffffffffffff0019811660015560081c167f8be0079c531659141344cd1fd0a4f28419497f9722a3daafe3b4186f6b6457e08280a380f35b5034610401576020366003190112610401576004358082526002602052610d3b6001600160a01b03600160408520015416151561210a565b8082526002602052610d5e6001600160a01b036001604085200154163314612156565b610d66612213565b816001600160a01b037f0000000000000000000000000000000000000000000000000000000000000000166040516370a0823160e01b8152336004820152602081602481855afa908115610e89578391610e57575b50813b15610e5357829160648392604051948593849263d2701f9960e01b845233600485015233602485015260448401525af18015610e4857610e2f575b5050604051904282527fc17bd84212c46947be32aca641d526ac26799ed0a7303f389cd6b2e60c63afc860203393a36001815580f35b81610e3991611f88565b610e4457815f610df9565b5080fd5b6040513d84823e3d90fd5b8280fd5b90506020813d602011610e81575b81610e7260209383611f88565b81010312610e5357515f610dbb565b3d9150610e65565b6040513d85823e3d90fd5b503461040157604036600319011261040157610eae611e92565b6001600160a01b0316815260046020526040812080546024359290831015610401576020610af48484611ed4565b50604036600319011261142b5760243580158015916004359183820361142b57825f526002602052610f1f6001600160a01b03600160405f20015416151561210a565b825f52600260205260ff600a60405f20015416156115e857825f526002602052600660405f2001544210156115a357610f56612213565b610f5e6121ce565b341561155e57825f52600260205260405f206001600160a01b03600182015416906001600160a01b037f000000000000000000000000000000000000000000000000000000000000000016803b1561142b5760405163f340fa0160e01b81523360048201525f8160248134865af180156115535761153e575b50604051631627391760e11b8152602081600481855afa9081156115335789916114fd575b5080156114e95734049267ffffffffffffffff84116114d057908891602067ffffffffffffffff60447f9e7b61f58c47dc699ac88507c4f5bb9f121c03808c5676a8078fe583e46497015497866001600160a01b036040519a8b958694639cd07acb60e01b865216600485015260056024850152165af1948515610e89578395611499575b5061108c3086612351565b6001600160a01b037f9e7b61f58c47dc699ac88507c4f5bb9f121c03808c5676a8078fe583e46497005416803b1561149557604051630f8e573b60e21b8152600481018790526001600160a01b03841660248201529084908290604490829084905af190811561148a578491611475575b5050813b15610e53578291604483926040519485938492632df5f6bf60e11b845260048401528960248401525af18015610e485761145c575b50506111546007820192835481811561144c575b15611442576123cc565b82556008810187815460206001600160a01b0360447f9e7b61f58c47dc699ac88507c4f5bb9f121c03808c5676a8078fe583e4649701546040519586938492639cd07acb60e01b84526001600485015260046024850152165af1918215611437578a926113fc575b506009946111e0836111ea936111f29695508181156113ec575b156113dc576123cc565b8355309054612351565b309054612351565b01805490600182018092116113c8575582855260036020526040852082156113c257855b604051906080820182811067ffffffffffffffff8211176113ae57906001600160a01b039160405216815260208101858152604082019042825260608301938885528054906801000000000000000082101561139a579061127c916001820181556120a5565b93909361138657906001600160a01b0380600395949351161673ffffffffffffffffffffffffffffffffffffffff19845416178355516001830155516002820155019051151560ff8019835416911617905561134b575b1561131a577f1cc0e78ae4ee83f519178bf749cb5a7f5429c202904e20324def4d61e6c9be6460406001600160a01b03855b82519542875260208701521693a36001815580f35b7f1cc0e78ae4ee83f519178bf749cb5a7f5429c202904e20324def4d61e6c9be6460406001600160a01b0333611305565b338452600460205261136082604086206120df565b33845260056020526040842082855260205260408420600160ff198254161790556112d3565b634e487b7160e01b8a5260048a905260248afd5b634e487b7160e01b8b52604160045260248bfd5b634e487b7160e01b89526041600452602489fd5b33611216565b634e487b7160e01b87526011600452602487fd5b90506113e66122f0565b906123cc565b90506113f66122f0565b906111d6565b9291506020833d60201161142f575b8161141860209383611f88565b8101031261142b579151909160096111bc565b5f80fd5b3d915061140b565b6040513d8c823e3d90fd5b90506113e6612260565b9050611456612260565b9061114a565b8161146691611f88565b61147157865f611136565b8680fd5b8161147f91611f88565b610e5357825f6110fd565b6040513d86823e3d90fd5b8380fd5b925093506020823d6020116114c8575b816114b660209383611f88565b8101031261142b57889151935f611081565b3d91506114a9565b6306dfcc6560e41b895260406004526024849052604489fd5b634e487b7160e01b89526012600452602489fd5b90506020813d60201161152b575b8161151860209383611f88565b8101031261152757515f610ffc565b8880fd5b3d915061150b565b6040513d8b823e3d90fd5b61154b9198505f90611f88565b5f965f610fd7565b6040513d5f823e3d90fd5b60405162461bcd60e51b815260206004820152600d60248201527f4d7573742073656e6420455448000000000000000000000000000000000000006044820152606490fd5b60405162461bcd60e51b815260206004820152601860248201527f43616d706169676e20646561646c696e652070617373656400000000000000006044820152606490fd5b60405162461bcd60e51b815260206004820152601360248201527f43616d706169676e206e6f7420616374697665000000000000000000000000006044820152606490fd5b3461142b575f36600319011261142b57602060ff600154166040519015158152f35b3461142b575f36600319011261142b576116676121e9565b60015460ff8116156116a65760ff19166001557f5db9ee0a495bf2e6ff9c91a7834c1ba4fdd244a5e8aa4e537bd38aeae4b073aa6020604051338152a1005b638dfc202b60e01b5f5260045ffd5b3461142b57602036600319011261142b57600435805f5260026020526116ec6001600160a01b03600160405f20015416151561210a565b805f52600260205261170f6001600160a01b03600160405f200154163314612156565b5f52600260205261173660405f2061172b336007830154612351565b600833910154612351565b005b3461142b5760e036600319011261142b5760043560243567ffffffffffffffff811161142b5761176c903690600401611f22565b919060443567ffffffffffffffff811161142b5761178e903690600401611f22565b919060643567ffffffffffffffff811161142b576117b0903690600401611f22565b909360a435600760c435101561142b576117c86121ce565b865f5260026020526001600160a01b03600160405f20015416611d95578715611d505760843515611d0b578015611cc65761180390426120be565b9461180c612260565b926118156122f0565b94885f52600260205260405f2093898555600185016001600160a01b03331673ffffffffffffffffffffffffffffffffffffffff198254161790556002850167ffffffffffffffff8c11611a77578b61186e8254611f50565b601f8111611c7f575b505f601f8211600114611c16575f91611c0b575b505f1960038e901b1c191660018d901b1790555b600385019167ffffffffffffffff8211611a775781906118bf8454611f50565b601f8111611bbb575b505f90601f8311600114611b54575f92611b49575b50508160011b915f199060031b1c19161790555b600483019167ffffffffffffffff8211611a775761190f8354611f50565b601f8111611b04575b505f90601f8311600114611a9657918061199b979694926111ea96945f92611a8b575b50508160011b915f199060031b1c19161790555b6084356005820155866006820155816007820155600881019384555f6009820155600a81018054600162ff000060c43560101b169162ffffff191617179055600b429101553090612351565b600854835f52600960205260405f205560085468010000000000000000811015611a77576119d56107c88260018794016008556008611ed4565b90556007549168010000000000000000831015611a775783611a236107c88560017f6b387e868c5ae9b53f9e972e16dfd32752b9c71f38ac76eb6dc19d157eb7044c97016007556007611ed4565b9055335f526006602052611a3a8460405f206120df565b84604051926060845281606085015260808401375f60808684010152608435602083015260408201526080813395601f80199101168101030190a3005b634e487b7160e01b5f52604160045260245ffd5b013590508c8061193b565b601f19831691845f5260205f20925f5b818110611aec57509260019285926111ea989661199b9b9a989610611ad3575b505050811b01905561194f565b01355f19600384901b60f8161c191690558c8080611ac6565b91936020600181928787013581550195019201611aa6565b835f5260205f20601f840160051c81019160208510611b3f575b601f0160051c01905b818110611b345750611918565b5f8155600101611b27565b9091508190611b1e565b013590508c806118dd565b909150601f19831691845f5260205f20925f5b818110611ba35750908460019594939210611b8a575b505050811b0190556118f1565b01355f19600384901b60f8161c191690558c8080611b7d565b91936020600181928787013581550195019201611b67565b909150835f5260205f20601f840160051c81019160208510611c01575b90601f859493920160051c01905b818110611bf357506118c8565b5f8155849350600101611be6565b9091508190611bd8565b90508901358d61188b565b5f8381526020812092508e90601f198216905b8d828210611c6157505010611c48575b505060018c811b01905561189f565b8a01355f1960038f901b60f8161c191690558c80611c39565b60209293508495839295600192013581550194019201908f91611c29565b825f5260205f20906020601f840160051c83019310611cbc575b601f0160051c01905b818110611cb1578d9150611877565b5f8155600101611ca2565b9091508190611c99565b60405162461bcd60e51b815260206004820152601160248201527f4475726174696f6e2072657175697265640000000000000000000000000000006044820152606490fd5b60405162461bcd60e51b815260206004820152601660248201527f54617267657420616d6f756e74207265717569726564000000000000000000006044820152606490fd5b60405162461bcd60e51b815260206004820152600e60248201527f5469746c652072657175697265640000000000000000000000000000000000006044820152606490fd5b60405162461bcd60e51b815260206004820152601260248201527f43616d706169676e2049442065786973747300000000000000000000000000006044820152606490fd5b3461142b57602036600319011261142b576001600160a01b03611dfb611e92565b165f52600660205260405f206040519081602082549182815201915f5260205f20905f5b818110611e365761056c8561056081870382611f88565b8254845260209093019260019283019201611e1f565b3461142b57604036600319011261142b57611e65611e92565b6001600160a01b0360243591165f52600660205260405f20805482101561142b57602091610af491611ed4565b600435906001600160a01b038216820361142b57565b600854811015611ec05760085f5260205f2001905f90565b634e487b7160e01b5f52603260045260245ffd5b8054821015611ec0575f5260205f2001905f90565b60206040818301928281528451809452019201905f5b818110611f0c5750505090565b8251845260209384019390920191600101611eff565b9181601f8401121561142b5782359167ffffffffffffffff831161142b576020838186019501011161142b57565b90600182811c92168015611f7e575b6020831014611f6a57565b634e487b7160e01b5f52602260045260245ffd5b91607f1691611f5f565b90601f8019910116810190811067ffffffffffffffff821117611a7757604052565b9060405191825f825492611fbd84611f50565b80845293600181169081156120285750600114611fe4575b50611fe292500383611f88565b565b90505f9291925260205f20905f915b81831061200c575050906020611fe2928201015f611fd5565b6020919350806001915483858901015201910190918492611ff3565b905060209250611fe294915060ff191682840152151560051b8201015f611fd5565b805180835260209291819084018484015e5f828201840152601f01601f1916010190565b90600782101561207b5752565b634e487b7160e01b5f52602160045260245ffd5b604090600319011261142b576004359060243590565b8054821015611ec0575f5260205f209060021b01905f90565b919082018092116120cb57565b634e487b7160e01b5f52601160045260245ffd5b80549068010000000000000000821015611a7757816107c891600161210694018155611ed4565b9055565b1561211157565b60405162461bcd60e51b815260206004820152601760248201527f43616d706169676e20646f6573206e6f742065786973740000000000000000006044820152606490fd5b1561215d57565b60405162461bcd60e51b815260206004820152601660248201527f4e6f742063616d706169676e206f7267616e697a6572000000000000000000006044820152606490fd5b67ffffffffffffffff8111611a775760051b60200190565b8051821015611ec05760209160051b010190565b60ff600154166121da57565b63d93c066560e01b5f5260045ffd5b6001600160a01b0360015460081c16330361220057565b63118cdaa760e01b5f523360045260245ffd5b60025f54146122225760025f55565b633ee5aeb560e01b5f5260045ffd5b4660010361223e57600190565b4662aa36a70361224e5761271190565b617a69461461225b575f90565b5f1990565b5f60206001600160a01b037f9e7b61f58c47dc699ac88507c4f5bb9f121c03808c5676a8078fe583e46497015416604460405180948193639cd07acb60e01b8352816004840152600560248401525af1908115611553575f916122c1575090565b90506020813d6020116122e8575b816122dc60209383611f88565b8101031261142b575190565b3d91506122cf565b5f60206001600160a01b037f9e7b61f58c47dc699ac88507c4f5bb9f121c03808c5676a8078fe583e46497015416604460405180948193639cd07acb60e01b8352816004840152600460248401525af1908115611553575f916122c1575090565b6001600160a01b037f9e7b61f58c47dc699ac88507c4f5bb9f121c03808c5676a8078fe583e4649700541691823b1561142b57604051635ca4b5b160e11b815260048101929092526001600160a01b03166024820152905f908290604490829084905af18015611553576123c25750565b5f611fe291611f88565b9060209060646001600160a01b037f9e7b61f58c47dc699ac88507c4f5bb9f121c03808c5676a8078fe583e46497015416935f604051958694859363022f65e760e31b8552600485015260248401528160448401525af1908115611553575f916122c157509056fea164736f6c634300081b000a",
  "linkReferences": {},
  "deployedLinkReferences": {}
}