{
  "_format": "hh-sol-artifact-1",
  "contractName": "AcademicEvaluation",
  "sourceName": "contracts/AcademicEvaluation.sol",
  "abi": [
    {
      "inputs": [],
      "stateMutability": "nonpayable",
      "type": "constructor"
    },
    {
      "inputs": [
        {
          "internalType": "address",
          "name": "owner",
          "type": "address"
        }
      ],
      "name": "OwnableInvalidOwner",
      "type": "error"
    },
    {
      "inputs": [
        {
          "internalType": "address",
          "name": "account",
          "type": "address"
        }
      ],
      "name": "OwnableUnauthorizedAccount",
      "type": "error"
    },
    {
      "inputs": [],
      "name": "ReentrancyGuardReentrantCall",
      "type": "error"
    },
    {
      "inputs": [],
      "name": "ZamaProtocolUnsupported",
      "type": "error"
    },
    {
      "anonymous": false,
      "inputs": [
        {
          "indexed": true,
          "internalType": "uint256",
          "name": "evaluationId",
          "type": "uint256"
        },
        {
          "indexed": true,
          "internalType": "uint256",
          "name": "paperId",
          "type": "uint256"
        },
        {
          "indexed": false,
          "internalType": "bool",
          "name": "recommendation",
          "type": "bool"
        },
        {
          "indexed": false,
          "internalType": "uint8",
          "name": "overallScore",
          "type": "uint8"
        }
      ],
      "name": "EvaluationRevealed",
      "type": "event"
    },
    {
      "anonymous": false,
      "inputs": [
        {
          "indexed": true,
          "internalType": "uint256",
          "name": "evaluationId",
          "type": "uint256"
        },
        {
          "indexed": true,
          "internalType": "uint256",
          "name": "paperId",
          "type": "uint256"
        },
        {
          "indexed": true,
          "internalType": "address",
          "name": "reviewer",
          "type": "address"
        },
        {
          "indexed": false,
          "internalType": "uint256",
          "name": "timestamp",
          "type": "uint256"
        }
      ],
      "name": "EvaluationSubmitted",
      "type": "event"
    },
    {
      "anonymous": false,
      "inputs": [
        {
          "indexed": true,
          "internalType": "address",
          "name": "previousOwner",
          "type": "address"
        },
        {
          "indexed": true,
          "internalType": "address",
          "name": "newOwner",
          "type": "address"
        }
      ],
      "name": "OwnershipTransferred",
      "type": "event"
    },
    {
      "anonymous": false,
      "inputs": [
        {
          "indexed": true,
          "internalType": "uint256",
          "name": "paperId",
          "type": "uint256"
        },
        {
          "indexed": false,
          "internalType": "string",
          "name": "title",
          "type": "string"
        },
        {
          "indexed": true,
          "internalType": "address",
          "name": "submitter",
          "type": "address"
        },
        {
          "indexed": false,
          "internalType": "uint256",
          "name": "timestamp",
          "type": "uint256"
        }
      ],
      "name": "PaperSubmitted",
      "type": "event"
    },
    {
      "inputs": [],
      "name": "activeReviewers",
      "outputs": [
        {
          "internalType": "uint256",
          "name": "",
          "type": "uint256"
        }
      ],
      "stateMutability": "view",
      "type": "function"
    },
    {
      "inputs": [],
      "name": "confidentialProtocolId",
      "outputs": [
        {
          "internalType": "uint256",
          "name": "",
          "type": "uint256"
        }
      ],
      "stateMutability": "view",
      "type": "function"
    },
    {
      "inputs": [
        {
          "internalType": "uint256",
          "name": "paperId",
          "type": "uint256"
        }
      ],
      "name": "deactivatePaper",
      "outputs": [],
      "stateMutability": "nonpayable",
      "type": "function"
    },
    {
      "inputs": [],
      "name": "emergencyPause",
      "outputs": [],
      "stateMutability": "nonpayable",
      "type": "function"
    },
    {
      "inputs": [],
      "name": "evaluationCount",
      "outputs": [
        {
          "internalType": "uint256",
          "name": "",
          "type": "uint256"
        }
      ],
      "stateMutability": "view",
      "type": "function"
    },
    {
      "inputs": [
        {
          "internalType": "uint256",
          "name": "",
          "type": "uint256"
        }
      ],
      "name": "evaluations",
      "outputs": [
        {
          "internalType": "uint256",
          "name": "paperId",
          "type": "uint256"
        },
        {
          "internalType": "address",
          "name": "reviewer",
          "type": "address"
        },
        {
          "internalType": "ebool",
          "name": "recommendation",
          "type": "bytes32"
        },
        {
          "internalType": "euint8",
          "name": "originality",
          "type": "bytes32"
        },
        {
          "internalType": "euint8",
          "name": "quality",
          "type": "bytes32"
        },
        {
          "internalType": "euint8",
          "name": "clarity",
          "type": "bytes32"
        },
        {
          "internalType": "euint8",
          "name": "significance",
          "type": "bytes32"
        },
        {
          "internalType": "string",
          "name": "comments",
          "type": "string"
        },
        {
          "internalType": "uint256",
          "name": "timestamp",
          "type": "uint256"
        }
      ],
      "stateMutability": "view",
      "type": "function"
    },
    {
      "inputs": [],
      "name": "getActiveReviewers",
      "outputs": [
        {
          "internalType": "uint256",
          "name": "",
          "type": "uint256"
        }
      ],
      "stateMutability": "view",
      "type": "function"
    },
    {
      "inputs": [
        {
          "internalType": "uint256",
          "name": "evaluationId",
          "type": "uint256"
        }
      ],
      "name": "getEncryptedRecommendation",
      "outputs": [
        {
          "internalType": "ebool",
          "name": "",
          "type": "bytes32"
        }
      ],
      "stateMutability": "view",
      "type": "function"
    },
    {
      "inputs": [
        {
          "internalType": "uint256",
          "name": "evaluationId",
          "type": "uint256"
        }
      ],
      "name": "getEncryptedScores",
      "outputs": [
        {
          "internalType": "euint8",
          "name": "",
          "type": "bytes32"
        },
        {
          "internalType": "euint8",
          "name": "",
          "type": "bytes32"
        },
        {
          "internalType": "euint8",
          "name": "",
          "type": "bytes32"
        },
        {
          "internalType": "euint8",
          "name": "",
          "type": "bytes32"
        }
      ],
      "stateMutability": "view",
      "type": "function"
    },
    {
      "inputs": [],
      "name": "getEvaluationCount",
      "outputs": [
        {
          "internalType": "uint256",
          "name": "",
          "type": "uint256"
        }
      ],
      "stateMutability": "view",
      "type": "function"
    },
    {
      "inputs": [
        {
          "internalType": "uint256",
          "name": "evaluationId",
          "type": "uint256"
        }
      ],
      "name": "getEvaluationInfo",
      "outputs": [
        {
          "internalType": "uint256",
          "name": "",
          "type": "uint256"
        },
        {
          "internalType": "address",
          "name": "",
          "type": "address"
        },
        {
          "internalType": "string",
          "name": "",
          "type": "string"
        },
        {
          "internalType": "uint256",
          "name": "",
          "type": "uint256"
        }
      ],
      "stateMutability": "view",
      "type": "function"
    },
    {
      "inputs": [
        {
          "internalType": "uint256",
          "name": "paperId",
          "type": "uint256"
        }
      ],
      "name": "getPaper",
      "outputs": [
        {
          "components": [
            {
              "internalType": "uint256",
              "name": "id",
              "type": "uint256"
            },
            {
              "internalType": "string",
              "name": "title",
              "type": "string"
            },
            {
              "internalType": "string",
              "name": "authors",
              "type": "string"
            },
            {
              "internalType": "string",
              "name": "ipfsHash",
              "type": "string"
            },
            {
              "internalType": "address",
              "name": "submitter",
              "type": "address"
            },
            {
              "internalType": "uint256",
              "name": "submissionDate",
              "type": "uint256"
            },
            {
              "internalType": "bool",
              "name": "isActive",
              "type": "bool"
            },
            {
              "internalType": "uint32",
              "name": "evaluationCount",
              "type": "uint32"
            }
          ],
          "internalType": "struct AcademicEvaluation.Paper",
          "name": "",
          "type": "tuple"
        }
      ],
      "stateMutability": "view",
      "type": "function"
    },
    {
      "inputs": [],
      "name": "getPaperCount",
      "outputs": [
        {
          "internalType": "uint256",
          "name": "",
          "type": "uint256"
        }
      ],
      "stateMutability": "view",
      "type": "function"
    },
    {
      "inputs": [
        {
          "internalType": "uint256",
          "name": "paperId",
          "type": "uint256"
        }
      ],
      "name": "getPaperEvaluations",
      "outputs": [
        {
          "internalType": "uint256[]",
          "name": "",
          "type": "uint256[]"
        }
      ],
      "stateMutability": "view",
      "type": "function"
    },
    {
      "inputs": [
        {
          "internalType": "address",
          "name": "reviewer",
          "type": "address"
        }
      ],
      "name": "getReviewerEvaluations",
      "outputs": [
        {
          "internalType": "uint256[]",
          "name": "",
          "type": "uint256[]"
        }
      ],
      "stateMutability": "view",
      "type": "function"
    },
    {
      "inputs": [],
      "name": "owner",
      "outputs": [
        {
          "internalType": "address",
          "name": "",
          "type": "address"
        }
      ],
      "stateMutability": "view",
      "type": "function"
    },
    {
      "inputs": [],
      "name": "paperCount",
      "outputs": [
        {
          "internalType": "uint256",
          "name": "",
          "type": "uint256"
        }
      ],
      "stateMutability": "view",
      "type": "function"
    },
    {
      "inputs": [
        {
          "internalType": "uint256",
          "name": "",
          "type": "uint256"
        },
        {
          "internalType": "uint256",
          "name": "",
          "type": "uint256"
        }
      ],
      "name": "paperEvaluations",
      "outputs": [
        {
          "internalType": "uint256",
          "name": "",
          "type": "uint256"
        }
      ],
      "stateMutability": "view",
      "type": "function"
    },
    {
      "inputs": [
        {
          "internalType": "uint256",
          "name": "",
          "type": "uint256"
        }
      ],
      "name": "papers",
      "outputs": [
        {
          "internalType": "uint256",
          "name": "id",
          "type": "uint256"
        },
        {
          "internalType": "string",
          "name": "title",
          "type": "string"
        },
        {
          "internalType": "string",
          "name": "authors",
          "type": "string"
        },
        {
          "internalType": "string",
          "name": "ipfsHash",
          "type": "string"
        },
        {
          "internalType": "address",
          "name": "submitter",
          "type": "address"
        },
        {
          "internalType": "uint256",
          "name": "submissionDate",
          "type": "uint256"
        },
        {
          "internalType": "bool",
          "name": "isActive",
          "type": "bool"
        },
        {
          "internalType": "uint32",
          "name": "evaluationCount",
          "type": "uint32"
        }
      ],
      "stateMutability": "view",
      "type": "function"
    },
    {
      "inputs": [
        {
          "internalType": "uint256",
          "name": "paperId",
          "type": "uint256"
        }
      ],
      "name": "reactivatePaper",
      "outputs": [],
      "stateMutability": "nonpayable",
      "type": "function"
    },
    {
      "inputs": [],
      "name": "renounceOwnership",
      "outputs": [],
      "stateMutability": "nonpayable",
      "type": "function"
    },
    {
      "inputs": [
        {
          "internalType": "address",
          "name": "",
          "type": "address"
        },
        {
          "internalType": "uint256",
          "name": "",
          "type": "uint256"
        }
      ],
      "name": "reviewerEvaluations",
      "outputs": [
        {
          "internalType": "uint256",
          "name": "",
          "type": "uint256"
        }
      ],
      "stateMutability": "view",
      "type": "function"
    },
    {
      "inputs": [
        {
          "internalType": "uint256",
          "name": "paperId",
          "type": "uint256"
        },
        {
          "internalType": "bool",
          "name": "_recommendation",
          "type": "bool"
        },
        {
          "internalType": "uint8",
          "name": "_originality",
          "type": "uint8"
        },
        {
          "internalType": "uint8",
          "name": "_quality",
          "type": "uint8"
        },
        {
          "internalType": "uint8",
          "name": "_clarity",
          "type": "uint8"
        },
        {
          "internalType": "uint8",
          "name": "_significance",
          "type": "uint8"
        },
        {
          "internalType": "string",
          "name": "comments",
          "type": "string"
        }
      ],
      "name": "submitEvaluation",
      "outputs": [],
      "stateMutability": "nonpayable",
      "type": "function"
    },
    {
      "inputs": [
        {
          "internalType": "string",
          "name": "title",
          "type": "string"
        },
        {
          "internalType": "string",
          "name": "authors",
          "type": "string"
        },
        {
          "internalType": "string",
          "name": "ipfsHash",
          "type": "string"
        }
      ],
      "name": "submitPaper",
      "outputs": [],
      "stateMutability": "nonpayable",
      "type": "function"
    },
    {
      "inputs": [
        {
          "internalType": "address",
          "name": "newOwner",
          "type": "address"
        }
      ],
      "name": "transferOwnership",
      "outputs": [],
      "stateMutability": "nonpayable",
      "type": "function"
    }
  ],
  "bytecode": "0x6080604052346102335761001161026a565b504660010361014f5761002261026a565b5061002b610237565b5f81525f60208201525f60408201525b80517f9e7b61f58c47dc699ac88507c4f5bb9f121c03808c5676a8078fe583e464970080546001600160a01b03199081166001600160a01b039384161790915560208301517f9e7b61f58c47dc699ac88507c4f5bb9f121c03808c5676a8078fe583e4649701805483169184169190911790556040909201517f9e7b61f58c47dc699ac88507c4f5bb9f121c03808c5676a8078fe583e464970280549093169116179055331561013c575f8054336001600160a01b03198216811783556040519290916001600160a01b0316907f8be0079c531659141344cd1fd0a4f28419497f9722a3daafe3b4186f6b6457e09080a360018055611cc590816102858239f35b631e4fbdf760e01b5f525f60045260245ffd5b4662aa36a7036101ba5761016161026a565b5061016a610237565b73f0ffdc93b7e186bc2f8cb3daa75d86d1930a433d81527392c920834ec8941d2c77d188936e1f7a6f49c127602082015273be0e383937d564d7ff0bc3b46c51f0bf8d5c311a604082015261003b565b46617a6903610224576101cb61026a565b506101d4610237565b7350157cffd6bbfa2dece204a89ec419c23ef5755d815273e3a9105a3a932253a70f126eb1e3b589c643dd24602082015273be0e383937d564d7ff0bc3b46c51f0bf8d5c311a604082015261003b565b6373cac13b60e01b5f5260045ffd5b5f80fd5b60405190606082016001600160401b0381118382101761025657604052565b634e487b7160e01b5f52604160045260245ffd5b610272610237565b905f82525f60208301525f604083015256fe60806040526004361015610011575f80fd5b5f3560e01c8063031fd2361461176157806307993f04146115e357806333c63b171461153e57806339ff6712146114bc5780633d7e97f2146109da57806351858e27146114a25780635e775a27146113d9578063684abd77146113a25780636955d3c9146112155780636f5f9070146111c1578063715018a61461116a5780637962f2bb146102735780638927b030146111485780638da5cb5b146111235780639785d2d8146109f7578063a56c2cb9146109da578063c9ace3f1146109bd578063cff07771146109bd578063dca2f51a14610968578063e6397e8114610480578063f078701014610313578063f2fde38b14610290578063f619daaf14610273578063f9c1a69c1461021c5763fe77e4ab1461012c575f80fd5b34610218576020366003190112610218576004358015158061020c575b61015290611a55565b5f52600260205260405f2060405161016981611895565b815481526001600160a01b036001830154169060208101918252600283015460408201526003830154606082015260048301546080820152600583015460a0820152600683015460c08201526102026001600160a01b0360086101ce600787016118d4565b958660e08601520154928361010082015251935116936040519485948552602085015260806040850152608084019061181c565b9060608301520390f35b50600654811115610149565b5f80fd5b3461021857602036600319011261021857600435610238611b5a565b80151580610267575b61024a90611a09565b5f908152600360205260409020600601805460ff19166001179055005b50600754811115610241565b34610218575f366003190112610218576020600854604051908152f35b34610218576020366003190112610218576001600160a01b036102b1611974565b6102b9611b5a565b168015610300576001600160a01b035f54826001600160a01b03198216175f55167f8be0079c531659141344cd1fd0a4f28419497f9722a3daafe3b4186f6b6457e05f80a3005b631e4fbdf760e01b5f525f60045260245ffd5b346102185760203660031901126102185760043580151580610474575b61033990611a55565b5f526002602052602060405f2060405161035281611895565b815481526001600160a01b03600183015416838201526008600283015492604083019384526003810154606084015260048101546080840152600581015460a0840152600681015460c08401526103ab600782016118d4565b60e08401520154610100820152515f526003825260405f206040516103cf81611878565b815481526103df600183016118d4565b848201526103ef600283016118d4565b6040820152610400600383016118d4565b606082015260e063ffffffff60066001600160a01b0360048601541694856080860152600581015460a0860152015460ff8116151560c085015260081c169101523314801561045c575b61045390611aa1565b51604051908152f35b506104536001600160a01b035f54163314905061044a565b50600654811115610330565b346102185760603660031901126102185760043567ffffffffffffffff8111610218576104b19036906004016119b3565b60243567ffffffffffffffff8111610218576104d19036906004016119b3565b9060443567ffffffffffffffff8111610218576104f29036906004016119b3565b916104fe600754611b13565b8060075560405161050e81611878565b818152602081019284845260408201908152606082019586526080820133815260a083019142835260c08401956001875260e08501955f87525f52600360205260405f209451855560018501905180519067ffffffffffffffff82116107d857819061057a8454611840565b601f8111610918575b50602090601f83116001146108b5575f926108aa575b50508160011b915f199060031b1c19161790555b518051600285019167ffffffffffffffff82116107d85781906105d08454611840565b601f811161085a575b50602090601f83116001146107f7575f926107ec575b50508160011b915f199060031b1c19161790555b60038301965196875167ffffffffffffffff81116107d8576106258254611840565b601f8111610793575b506020601f8211600114610719579260069492826001600160a01b039363ffffffff9998966106c69c9d5f9261070e575b50508160011b915f199060031b1c19161790555b51166001600160a01b036004840191166001600160a01b0319825416179055516005820155019251151560ff80198554169116178355511664ffffffff0082549160081b169064ffffffff001916179055565b6007547fc5bc77facd1c259e446f260704d5678663551367ba17b5165ddff224ad94d1d86106ff6040519360408552604085019061181c565b924260208201528033940390a3005b015190508d8061065f565b601f19821699835f52815f209a5f5b81811061077b5750836106c69b9c63ffffffff9a99979460069997946001600160a01b039760019510610763575b505050811b019055610673565b01515f1960f88460031b161c191690558d8080610756565b838301518d556001909c019b60209384019301610728565b825f5260205f20601f830160051c810191602084106107ce575b601f0160051c01905b8181106107c3575061062e565b5f81556001016107b6565b90915081906107ad565b634e487b7160e01b5f52604160045260245ffd5b015190508a806105ef565b5f8581528281209350601f198516905b818110610842575090846001959493921061082a575b505050811b019055610603565b01515f1960f88460031b161c191690558a808061081d565b92936020600181928786015181550195019301610807565b909150835f5260205f20601f840160051c810191602085106108a0575b90601f859493920160051c01905b81811061089257506105d9565b5f8155849350600101610885565b9091508190610877565b015190508b80610599565b5f8581528281209350601f198516905b81811061090057509084600195949392106108e8575b505050811b0190556105ad565b01515f1960f88460031b161c191690558b80806108db565b929360206001819287860151815501950193016108c5565b909150835f5260205f20601f840160051c8101916020851061095e575b90601f859493920160051c01905b8181106109505750610583565b5f8155849350600101610943565b9091508190610935565b3461021857604036600319011261021857610981611974565b6001600160a01b0360243591165f52600460205260405f208054821015610218576020916109ae9161198a565b90549060031b1c604051908152f35b34610218575f366003190112610218576020600654604051908152f35b34610218575f366003190112610218576020600754604051908152f35b346102185760e03660031901126102185760043560243580151581036102185760443560ff8116809103610218576064359160ff83168093036102185760843560ff81168091036102185760a43560ff81168091036102185760c43567ffffffffffffffff811161021857610a709036906004016119b3565b9260026001541461111457600260015586151580611108575b610a9290611a09565b865f52600360205260ff600660405f20015416156110c3576001851015806110b8575b1561107357600186101580611068575b1561102357600183101580611018575b15610fd357600182101580610fc8575b15610f8357610af5600654611b13565b60065515610f7c576001935b602060ff60446001600160a01b037f9e7b61f58c47dc699ac88507c4f5bb9f121c03808c5676a8078fe583e46497015416975f604051998a948593639cd07acb60e01b85521660048401528160248401525af1948515610f71575f95610f3b575b50610b81610b7b610b75610b8793611baf565b97611baf565b93611baf565b91611baf565b9160405195610b9587611895565b878752602087019533875260408801908152606088019182526080880192835260a0880193845260c0880194855260e088019586526001600160a01b036101008901974289526006545f52600260205260405f2099518a5551166001600160a01b0360018a0191166001600160a01b031982541617905551600288015551600387015551600486015551600585015551600684015560078301905180519067ffffffffffffffff82116107d857610c4c8354611840565b601f8111610ef6575b50602090601f8311600114610e8f576008949392915f9183610e84575b50508160011b915f199060031b1c19161790555b519101556006545f526002602052610ca6600260405f2001543090611c41565b6006545f526002602052610cc133600260405f200154611c41565b6006545f526002602052610cdc30600360405f200154611c41565b6006545f526002602052610cf733600360405f200154611c41565b6006545f526002602052610d1230600460405f200154611c41565b6006545f526002602052610d2d33600460405f200154611c41565b6006545f526002602052610d4830600560405f200154611c41565b6006545f526002602052610d6333600560405f200154611c41565b6006545f526002602052610d7e30600660405f200154611c41565b6006545f526002602052610d9933600660405f200154611c41565b335f526004602052610db160405f2060065490611b21565b805f526005602052610dc960405f2060065490611b21565b805f526003602052600660405f200163ffffffff815460081c169063ffffffff8214610e70576001610e11920164ffffffff0082549160081b169064ffffffff001916179055565b335f526004602052600160405f205414610e5d575b60065490604051914283527fc06e141189957f730cf268b1ffa7c5431e435e921dc2a880cf000038b863124760203394a460018055005b610e68600854611b13565b600855610e26565b634e487b7160e01b5f52601160045260245ffd5b015190508780610c72565b90601f19831691845f52815f20925f5b818110610ede575091600193918560089897969410610ec6575b505050811b019055610c86565b01515f1960f88460031b161c19169055878080610eb9565b92936020600181928786015181550195019301610e9f565b835f5260205f20601f840160051c81019160208510610f31575b601f0160051c01905b818110610f265750610c55565b5f8155600101610f19565b9091508190610f10565b9094506020813d602011610f69575b81610f57602093836118b2565b81010312610218575193610b81610b62565b3d9150610f4a565b6040513d5f823e3d90fd5b5f93610b01565b60405162461bcd60e51b815260206004820152601f60248201527f5369676e69666963616e63652073636f7265206d75737420626520312d3130006044820152606490fd5b50600a821115610ae5565b60405162461bcd60e51b815260206004820152601a60248201527f436c61726974792073636f7265206d75737420626520312d31300000000000006044820152606490fd5b50600a831115610ad5565b60405162461bcd60e51b815260206004820152601a60248201527f5175616c6974792073636f7265206d75737420626520312d31300000000000006044820152606490fd5b50600a861115610ac5565b60405162461bcd60e51b815260206004820152601e60248201527f4f726967696e616c6974792073636f7265206d75737420626520312d313000006044820152606490fd5b50600a851115610ab5565b60405162461bcd60e51b815260206004820152601360248201527f5061706572206973206e6f7420616374697665000000000000000000000000006044820152606490fd5b50600754871115610a89565b633ee5aeb560e01b5f5260045ffd5b34610218575f3660031901126102185760206001600160a01b035f5416604051908152f35b34610218575f366003190112610218576020611162611b80565b604051908152f35b34610218575f36600319011261021857611182611b5a565b5f6001600160a01b0381546001600160a01b031981168355167f8be0079c531659141344cd1fd0a4f28419497f9722a3daafe3b4186f6b6457e08280a3005b34610218576020366003190112610218576004356111dd611b5a565b80151580611209575b6111ef90611a09565b5f908152600360205260409020600601805460ff19169055005b506007548111156111e6565b346102185760203660031901126102185760043580151580611396575b61123b90611a55565b5f526002602052608060405f2060405161125481611895565b815481526001600160a01b036001830154166020820152600282015460408201526003820154916060820192835260048101549284830193845260058201549260a08101938452600860068401549360c083019485526112b6600782016118d4565b60e08401520154610100820152515f52600360205260405f206040516112db81611878565b815481526112eb600183016118d4565b60208201526112fc600283016118d4565b604082015261130d600383016118d4565b606082015260e063ffffffff60066001600160a01b0360048601541694858b860152600581015460a0860152015460ff8116151560c085015260081c169101523314801561137e575b61135f90611aa1565b5192519151905191604051938452602084015260408301526060820152f35b5061135f6001600160a01b035f541633149050611356565b50600654811115611232565b34610218576040366003190112610218576024356004355f52600560205260405f208054821015610218576020916109ae9161198a565b34610218576020366003190112610218576004355f52600360205260405f208054611406600183016118d4565b9163ffffffff611418600283016118d4565b611424600384016118d4565b9261147f6001600160a01b036004830154169461147160066005850154940154946114636040519a8b9a8b5261010060208c01526101008b019061181c565b9089820360408b015261181c565b90878203606089015261181c565b93608086015260a085015260ff8116151560c085015260081c1660e08301520390f35b34610218575f366003190112610218576114ba611b5a565b005b34610218576020366003190112610218576001600160a01b036114dd611974565b165f52600460205260405f206040519081602082549182815201915f5260205f20905f5b8181106115285761152485611518818703826118b2565b604051918291826117e3565b0390f35b8254845260209093019260019283019201611501565b34610218576020366003190112610218576004355f52600260205260405f2080546001600160a01b03600183015416916115d860028201549160038101546004820154600583015490600684015492600861159b600787016118d4565b95015496604051998a998a5260208a015260408901526060880152608087015260a086015260c085015261012060e085015261012084019061181c565b906101008301520390f35b34610218576020366003190112610218576004355f60e060405161160681611878565b82815260606020820152606060408201526060808201528260808201528260a08201528260c0820152015280151580611755575b61164390611a09565b5f5260036020526040805f2081519061165b82611878565b8054825263ffffffff611670600183016118d4565b9260208101938452611684600284016118d4565b90858101918252611697600385016118d4565b93606082019485526001600160a01b03611733816004840154169660808501978852611720600660058601549560a0880196875201549661170d60c088019760ff8a16151589528a60e082019a60081c168a526101008e519e8f9e8f9360208552516020850152519201526101208d019061181c565b90518b8203601f190160608d015261181c565b9051898203601f190160808b015261181c565b95511660a08701525160c086015251151560e085015251166101008301520390f35b5060075481111561163a565b3461021857602036600319011261021857600435801515806117d7575b61178790611a09565b5f52600560205260405f206040519081602082549182815201915f5260205f20905f5b8181106117c15761152485611518818703826118b2565b82548452602090930192600192830192016117aa565b5060075481111561177e565b60206040818301928281528451809452019201905f5b8181106118065750505090565b82518452602093840193909201916001016117f9565b805180835260209291819084018484015e5f828201840152601f01601f1916010190565b90600182811c9216801561186e575b602083101461185a57565b634e487b7160e01b5f52602260045260245ffd5b91607f169161184f565b610100810190811067ffffffffffffffff8211176107d857604052565b610120810190811067ffffffffffffffff8211176107d857604052565b90601f8019910116810190811067ffffffffffffffff8211176107d857604052565b9060405191825f8254926118e784611840565b8084529360018116908115611952575060011461190e575b5061190c925003836118b2565b565b90505f9291925260205f20905f915b81831061193657505090602061190c928201015f6118ff565b602091935080600191548385890101520191019091849261191d565b90506020925061190c94915060ff191682840152151560051b8201015f6118ff565b600435906001600160a01b038216820361021857565b805482101561199f575f5260205f2001905f90565b634e487b7160e01b5f52603260045260245ffd5b81601f820112156102185780359067ffffffffffffffff82116107d857604051926119e8601f8401601f1916602001856118b2565b8284526020838301011161021857815f926020809301838601378301015290565b15611a1057565b60405162461bcd60e51b815260206004820152601060248201527f496e76616c6964207061706572204944000000000000000000000000000000006044820152606490fd5b15611a5c57565b60405162461bcd60e51b815260206004820152601560248201527f496e76616c6964206576616c756174696f6e20494400000000000000000000006044820152606490fd5b15611aa857565b60405162461bcd60e51b815260206004820152602860248201527f4e6f7420617574686f72697a656420746f20616363657373207468697320657660448201527f616c756174696f6e0000000000000000000000000000000000000000000000006064820152608490fd5b5f198114610e705760010190565b8054680100000000000000008110156107d857611b439160018201815561198a565b819291549060031b91821b915f19901b1916179055565b6001600160a01b035f54163303611b6d57565b63118cdaa760e01b5f523360045260245ffd5b46600103611b8d57600190565b4662aa36a703611b9d5761271190565b617a694614611baa575f90565b5f1990565b60206001600160a01b039160447f9e7b61f58c47dc699ac88507c4f5bb9f121c03808c5676a8078fe583e464970154915f6040519586948593639cd07acb60e01b8552600485015260026024850152165af1908115610f71575f91611c12575090565b90506020813d602011611c39575b81611c2d602093836118b2565b81010312610218575190565b3d9150611c20565b6001600160a01b037f9e7b61f58c47dc699ac88507c4f5bb9f121c03808c5676a8078fe583e4649700541691823b156102185760445f92836001600160a01b03956040519687958694635ca4b5b160e11b865260048601521660248401525af18015610f7157611cae5750565b5f61190c916118b256fea164736f6c634300081b000a",
  "linkReferences": {},
  "deployedLinkReferences": {}
}